{
  "abi": [
    {
      "anonymous": false,
      "inputs": [
        {
          "indexed": false,
          "internalType": "address",
          "name": "addr",
          "type": "address"
        }
      ],
      "name": "ForFlag",
      "type": "event"
    },
    {
      "constant": false,
      "inputs": [
        {
          "internalType": "address payable",
          "name": "_addr",
          "type": "address"
        }
      ],
      "name": "payforflag",
      "outputs": [],
      "payable": false,
      "stateMutability": "nonpayable",
      "type": "function"
    },
    {
      "constant": false,
      "inputs": [],
      "name": "sendFlag",
      "outputs": [],
      "payable": true,
      "stateMutability": "payable",
      "type": "function"
    },
    {
      "constant": true,
      "inputs": [],
      "name": "target",
      "outputs": [
        {
          "internalType": "address",
          "name": "",
          "type": "address"
        }
      ],
      "payable": false,
      "stateMutability": "view",
      "type": "function"
    }
  ],
  "bytecode": "608060405234801561001057600080fd5b50610355806100206000396000f3fe6080604052600436106100345760003560e01c8063c180319114610039578063d4b839921461006e578063ec19a84f1461009f575b600080fd5b34801561004557600080fd5b5061006c6004803603602081101561005c57600080fd5b50356001600160a01b03166100a7565b005b34801561007a57600080fd5b506100836102c3565b604080516001600160a01b039092168252519081900360200190f35b61006c6102d2565b6001600160a01b0381166100ba57600080fd5b60408051603f833b908101601f1916820190925281815281600060208301853c60005b81518110156101f2578181815181106100f257fe5b6020910101516001600160f81b031916600f60fc1b141561011257600080fd5b81818151811061011e57fe5b6020910101516001600160f81b03191660f160f81b141561013e57600080fd5b81818151811061014a57fe5b6020910101516001600160f81b031916607960f91b141561016a57600080fd5b81818151811061017657fe5b6020910101516001600160f81b031916603d60fa1b141561019657600080fd5b8181815181106101a257fe5b6020910101516001600160f81b031916607d60f91b14156101c257600080fd5b8181815181106101ce57fe5b01602001516001600160f81b031990811614156101ea57600080fd5b6001016100dd565b5060408051600481526024810182526020810180516001600160e01b031663c5d2460160e01b178152915181516001600160a01b0387169382918083835b6020831061024f5780518252601f199092019160209182019101610230565b6001836020036101000a038019825116818451168082178552505050505050905001915050600060405180830381855af49150503d80600081146102af576040519150601f19603f3d011682016040523d82523d6000602084013e6102b4565b606091505b505050826001600160a01b0316ff5b6000546001600160a01b031681565b6b033b2e3c9fd0803ce80000003410156102eb57600080fd5b6040805133815290517f89814845d4f005a4059f76ea572f39df73fbe3d1c9b20f12b3b03d09f999b9e29181900360200190a156fea265627a7a723158204ecedf7d085e481117298a625dfc1fd37f86a94d6697d83e57d747aff157b25f64736f6c63430005110032",
  "bytecodeSha1": "82f3e9c2f0ba961b89d1961663f09bba724a129a",
  "compiler": {
    "evm_version": "istanbul",
    "optimizer": {
      "enabled": true,
      "runs": 200
    },
    "version": "0.5.17+commit.d19bba13"
  },
  "contractName": "BoxGame",
  "language": "Solidity",
  "natspec": {
    "methods": {}
  },
  "opcodes": "PUSH1 0x80 PUSH1 0x40 MSTORE PUSH1 0x4 CALLDATASIZE LT PUSH2 0x34 JUMPI PUSH1 0x0 CALLDATALOAD PUSH1 0xE0 SHR DUP1 PUSH4 0xC1803191 EQ PUSH2 0x39 JUMPI DUP1 PUSH4 0xD4B83992 EQ PUSH2 0x6E JUMPI DUP1 PUSH4 0xEC19A84F EQ PUSH2 0x9F JUMPI JUMPDEST PUSH1 0x0 DUP1 REVERT JUMPDEST CALLVALUE DUP1 ISZERO PUSH2 0x45 JUMPI PUSH1 0x0 DUP1 REVERT JUMPDEST POP PUSH2 0x6C PUSH1 0x4 DUP1 CALLDATASIZE SUB PUSH1 0x20 DUP2 LT ISZERO PUSH2 0x5C JUMPI PUSH1 0x0 DUP1 REVERT JUMPDEST POP CALLDATALOAD PUSH1 0x1 PUSH1 0x1 PUSH1 0xA0 SHL SUB AND PUSH2 0xA7 JUMP JUMPDEST STOP JUMPDEST CALLVALUE DUP1 ISZERO PUSH2 0x7A JUMPI PUSH1 0x0 DUP1 REVERT JUMPDEST POP PUSH2 0x83 PUSH2 0x2C3 JUMP JUMPDEST PUSH1 0x40 DUP1 MLOAD PUSH1 0x1 PUSH1 0x1 PUSH1 0xA0 SHL SUB SWAP1 SWAP3 AND DUP3 MSTORE MLOAD SWAP1 DUP2 SWAP1 SUB PUSH1 0x20 ADD SWAP1 RETURN JUMPDEST PUSH2 0x6C PUSH2 0x2D2 JUMP JUMPDEST PUSH1 0x1 PUSH1 0x1 PUSH1 0xA0 SHL SUB DUP2 AND PUSH2 0xBA JUMPI PUSH1 0x0 DUP1 REVERT JUMPDEST PUSH1 0x40 DUP1 MLOAD PUSH1 0x3F DUP4 EXTCODESIZE SWAP1 DUP2 ADD PUSH1 0x1F NOT AND DUP3 ADD SWAP1 SWAP3 MSTORE DUP2 DUP2 MSTORE DUP2 PUSH1 0x0 PUSH1 0x20 DUP4 ADD DUP6 EXTCODECOPY PUSH1 0x0 JUMPDEST DUP2 MLOAD DUP2 LT ISZERO PUSH2 0x1F2 JUMPI DUP2 DUP2 DUP2 MLOAD DUP2 LT PUSH2 0xF2 JUMPI INVALID JUMPDEST PUSH1 0x20 SWAP2 ADD ADD MLOAD PUSH1 0x1 PUSH1 0x1 PUSH1 0xF8 SHL SUB NOT AND PUSH1 0xF PUSH1 0xFC SHL EQ ISZERO PUSH2 0x112 JUMPI PUSH1 0x0 DUP1 REVERT JUMPDEST DUP2 DUP2 DUP2 MLOAD DUP2 LT PUSH2 0x11E JUMPI INVALID JUMPDEST PUSH1 0x20 SWAP2 ADD ADD MLOAD PUSH1 0x1 PUSH1 0x1 PUSH1 0xF8 SHL SUB NOT AND PUSH1 0xF1 PUSH1 0xF8 SHL EQ ISZERO PUSH2 0x13E JUMPI PUSH1 0x0 DUP1 REVERT JUMPDEST DUP2 DUP2 DUP2 MLOAD DUP2 LT PUSH2 0x14A JUMPI INVALID JUMPDEST PUSH1 0x20 SWAP2 ADD ADD MLOAD PUSH1 0x1 PUSH1 0x1 PUSH1 0xF8 SHL SUB NOT AND PUSH1 0x79 PUSH1 0xF9 SHL EQ ISZERO PUSH2 0x16A JUMPI PUSH1 0x0 DUP1 REVERT JUMPDEST DUP2 DUP2 DUP2 MLOAD DUP2 LT PUSH2 0x176 JUMPI INVALID JUMPDEST PUSH1 0x20 SWAP2 ADD ADD MLOAD PUSH1 0x1 PUSH1 0x1 PUSH1 0xF8 SHL SUB NOT AND PUSH1 0x3D PUSH1 0xFA SHL EQ ISZERO PUSH2 0x196 JUMPI PUSH1 0x0 DUP1 REVERT JUMPDEST DUP2 DUP2 DUP2 MLOAD DUP2 LT PUSH2 0x1A2 JUMPI INVALID JUMPDEST PUSH1 0x20 SWAP2 ADD ADD MLOAD PUSH1 0x1 PUSH1 0x1 PUSH1 0xF8 SHL SUB NOT AND PUSH1 0x7D PUSH1 0xF9 SHL EQ ISZERO PUSH2 0x1C2 JUMPI PUSH1 0x0 DUP1 REVERT JUMPDEST DUP2 DUP2 DUP2 MLOAD DUP2 LT PUSH2 0x1CE JUMPI INVALID JUMPDEST ADD PUSH1 0x20 ADD MLOAD PUSH1 0x1 PUSH1 0x1 PUSH1 0xF8 SHL SUB NOT SWAP1 DUP2 AND EQ ISZERO PUSH2 0x1EA JUMPI PUSH1 0x0 DUP1 REVERT JUMPDEST PUSH1 0x1 ADD PUSH2 0xDD JUMP JUMPDEST POP PUSH1 0x40 DUP1 MLOAD PUSH1 0x4 DUP2 MSTORE PUSH1 0x24 DUP2 ADD DUP3 MSTORE PUSH1 0x20 DUP2 ADD DUP1 MLOAD PUSH1 0x1 PUSH1 0x1 PUSH1 0xE0 SHL SUB AND PUSH4 0xC5D24601 PUSH1 0xE0 SHL OR DUP2 MSTORE SWAP2 MLOAD DUP2 MLOAD PUSH1 0x1 PUSH1 0x1 PUSH1 0xA0 SHL SUB DUP8 AND SWAP4 DUP3 SWAP2 DUP1 DUP4 DUP4 JUMPDEST PUSH1 0x20 DUP4 LT PUSH2 0x24F JUMPI DUP1 MLOAD DUP3 MSTORE PUSH1 0x1F NOT SWAP1 SWAP3 ADD SWAP2 PUSH1 0x20 SWAP2 DUP3 ADD SWAP2 ADD PUSH2 0x230 JUMP JUMPDEST PUSH1 0x1 DUP4 PUSH1 0x20 SUB PUSH2 0x100 EXP SUB DUP1 NOT DUP3 MLOAD AND DUP2 DUP5 MLOAD AND DUP1 DUP3 OR DUP6 MSTORE POP POP POP POP POP POP SWAP1 POP ADD SWAP2 POP POP PUSH1 0x0 PUSH1 0x40 MLOAD DUP1 DUP4 SUB DUP2 DUP6 GAS DELEGATECALL SWAP2 POP POP RETURNDATASIZE DUP1 PUSH1 0x0 DUP2 EQ PUSH2 0x2AF JUMPI PUSH1 0x40 MLOAD SWAP2 POP PUSH1 0x1F NOT PUSH1 0x3F RETURNDATASIZE ADD AND DUP3 ADD PUSH1 0x40 MSTORE RETURNDATASIZE DUP3 MSTORE RETURNDATASIZE PUSH1 0x0 PUSH1 0x20 DUP5 ADD RETURNDATACOPY PUSH2 0x2B4 JUMP JUMPDEST PUSH1 0x60 SWAP2 POP JUMPDEST POP POP POP DUP3 PUSH1 0x1 PUSH1 0x1 PUSH1 0xA0 SHL SUB AND SELFDESTRUCT JUMPDEST PUSH1 0x0 SLOAD PUSH1 0x1 PUSH1 0x1 PUSH1 0xA0 SHL SUB AND DUP2 JUMP JUMPDEST PUSH12 0x33B2E3C9FD0803CE8000000 CALLVALUE LT ISZERO PUSH2 0x2EB JUMPI PUSH1 0x0 DUP1 REVERT JUMPDEST PUSH1 0x40 DUP1 MLOAD CALLER DUP2 MSTORE SWAP1 MLOAD PUSH32 0x89814845D4F005A4059F76EA572F39DF73FBE3D1C9B20F12B3B03D09F999B9E2 SWAP2 DUP2 SWAP1 SUB PUSH1 0x20 ADD SWAP1 LOG1 JUMP INVALID LOG2 PUSH6 0x627A7A723158 KECCAK256 0x4E 0xCE 0xDF PUSH30 0x85E481117298A625DFC1FD37F86A94D6697D83E57D747AFF157B25F6473 PUSH16 0x6C634300051100320000000000000000 ",
  "sha1": "9693cdaf7b3a581be83e4e1124a12ffd3f5140f0",
  "source": "pragma solidity ^0.5.10;\n\ncontract BoxGame {\n\n    event ForFlag(address addr);\n    address public target;\n    \n    function payforflag(address payable _addr) public {\n        \n        require(_addr != address(0));\n        \n        uint256 size;\n        bytes memory code;\n\n        assembly {\n            size := extcodesize(_addr)\n            code := mload(0x40)\n            mstore(0x40, add(code, and(add(add(size, 0x20), 0x1f), not(0x1f))))\n            mstore(code, size)\n            extcodecopy(_addr, add(code, 0x20), 0, size)\n        }\n\n        for(uint256 i = 0; i < code.length; i++) {\n            require(code[i] != 0xf0); // CREATE\n            require(code[i] != 0xf1); // CALL\n            require(code[i] != 0xf2); // CALLCODE\n            require(code[i] != 0xf4); // DELEGATECALL\n            require(code[i] != 0xfa); // STATICCALL\n            require(code[i] != 0xff); // SELFDESTRUCT\n        }\n        \n        _addr.delegatecall(abi.encodeWithSignature(\"\"));\n        selfdestruct(_addr);\n    }\n    \n    function sendFlag() public payable {\n        require(msg.value >= 1000000000 ether);\n        emit ForFlag(msg.sender);\n    }\n\n}\n",
  "sourcePath": "contracts/a.sol",
  "type": "contract"
}